:020000040800F2
:10000000A0E500209D0100080F1B000859180008FA
:100010000D1B000869040008F51B00080000000023
:10002000000000000000000000000000AF01000818
:100030006B04000800000000B3010008111B000859
:10004000B7010008B7010008B7010008B7010008B0
:10005000B7010008B7010008B7010008B7010008A0
:10006000B7010008B7010008B7010008B701000890
:10007000B7010008B7010008B7010008B701000880
:10008000B7010008B7010008B7010008B701000870
:10009000B7010008B7010008B7010008B701000860
:1000A000B7010008B7010008B7010008B701000850
:1000B000B7010008B7010008B7010008B701000840
:1000C000B7010008B7010008B7010008B701000830
:1000D000B7010008B7010008B7010008B701000820
:1000E000B7010008B7010008B7010008B701000810
:1000F000B7010008B7010008B7010008B701000800
:10010000B7010008B7010008B7010008B7010008EF
:10011000B7010008B7010008B7010008B7010008DF
:10012000B7010008B7010008B7010008B7010008CF
:10013000B7010008B7010008B7010008B7010008BF
:10014000B7010008B7010008B7010008B7010008AF
:10015000B7010008B7010008B7010008B70100089F
:10016000B7010008B7010008B7010008B70100088F
:10017000B7010008B7010008B7010008000000003F
:10018000B7010008B7010008DFF80CD000F0D0F884
:1001900000480047213F0008A0E5002006488047AE
:1001A00006480047FEE7FEE7FEE7FEE7FEE7FEE75C
:1001B000FEE7FEE7FEE7FEE7A11B00088901000855
:1001C0002DE9F05F0546002092469B46884606468C
:1001D000814640241BE0284641464746224600F01F
:1001E00097F853465A46C01A914110D31146184603
:1001F000224600F07EF82D1A67EB01084F46224692
:100200000120002100F075F817EB00094E41201E77
:10021000A4F10104DFDC484631462A464346BDE8E6
:10022000F09F00000649074A0868504343F239022C
:10023000104408604008704701490860704700009A
:10024000F00000206D4EC64110B5431A934209D20A
:100250008318881803E010F8011D03F8011D521ED1
:10026000F9D210BD40EA01039B0703D009E008C999
:10027000121F08C0042AFAD203E011F8013B00F86B
:10028000013B521EF9D210BDD2B201E000F8012BA1
:10029000491EFBD270470022F6E710B513460A4606
:1002A00004461946FFF7F0FF204610BD30B504465E
:1002B0000020034600E05B1C934203D2E05CCD5C6F
:1002C000401BF8D030BD30B50B460146002020223F
:1002D000012409E021FA02F59D4205D303FA02F553
:1002E000491B04FA02F52844151EA2F10102F1DCB3
:1002F00030BD202A04DB203A00FA02F100207047CA
:100300009140C2F1200320FA03F319439040704753
:10031000202A04DB203A21FA02F00021704721FA5A
:1003200002F3D040C2F120029140084319467047C1
:10033000064C074D06E0E06840F0010394E8070032
:1003400098471034AC42F6D3FFF722FF20C40008D0
:1003500040C40008074B30B49B68DD881C689B884C
:10036000DB1DDB08203A13FB02F205FB024230BC26
:1003700000F07CB8E80100202DE9F0470446002792
:1003800099468A461546B846104601E008F101082C
:1003900010F8011B0029F9D100F05AF81C4E4A460A
:1003A000B9F1010FB1688988B0FBF1F002D0022ADF
:1003B00017D105E0A0EB0800484304EB500003E030
:1003C000A0EB08004843001B84B20AE051462046D7
:1003D000FFF7C0FFB0687F1CBFB280886D1C20444F
:1003E00084B200F035F80146B068808807FB101130
:1003F00089B2814201D3012000E000202A780AB1AD
:10040000012100E000210842E0D1BDE8F0870000B2
:10041000E8010020054A03239268D288424390B243
:100420000A4601460020FFF7A7BF0000E8010020B0
:10043000034B1B685B69002B00D018477047000016
:10044000100000200148806870470000E80100208B
:1004500001480068806A00471000002001490860D8
:1004600070470000E8010020FEE770472DE9F74FD4
:10047000DFF890B00026DBF808008588C788E81D03
:10048000824620F00700401B00F0FF0935E000BF66
:100490004FEADA010298012901FB06000BD002297C
:1004A0000BD0017842780904807841EA022141EAC0
:1004B000000800241AE0007801E0008840BA804675
:1004C000F7E7291B49440120491E884010EA080F1C
:1004D00002D0BBF8000001E0BBF80400019982B231
:1004E0000098204480B2FFF7A3FF641CAC42E8D31D
:1004F0000198401C80B2761C0190BE42C8D3BDE872
:10050000FE8F0000E8010020F0B500231A464FF0EE
:10051000004544F2F85600BF016903EB830401EB88
:10052000C4010A604A608A60CA600A620D604A6259
:100530004E604F6827F000474F6000EB8307032BA6
:10054000B96406D24FF0280C07690CEBC4043C4494
:1005500000E00469CC605B1C042BDDD3C26502663D
:100560008266C26682650169006800F58050C160DC
:10057000F0BD38B50446006800F58050816941F44B
:1005800080118161206800F5805080690090012011
:1005900000F070FA2068009900F58050816138BD44
:1005A00070B5A4B00024012506468DF828408DF8CA
:1005B00004501494A8038DF8564005908DF81050FF
:1005C00002948DF85440C0108DF811508DF81F40E2
:1005D0008DF8204006908DF81E508DF80F4009943C
:1005E0008DF81C4012948DF84C408DF855406946AA
:1005F000304600F063F98DF881508DF880408DF819
:10060000824028041B908DF8685080011F908DF85F
:1006100070508DF8885040128DF871501E941D90C6
:100620008DF87250239421948DF8895019A9304681
:10063000199400F0E3F824B070BD0020704700F07A
:10064000F7BD000010B5024800F0F4FB002010BD1B
:10065000BC3F002013460A4610B50146034800F08F
:100660007DFB002801D04FF0FF3010BDBC3F0020C3
:1006700013460A4610B50146034800F0A9FC0028BD
:1006800001D04FF0FF3010BDBC3F00202DE9F043FA
:10069000836A1830914650F823208D681C461768ED
:1006A0000026002F75DB00EB83077F69002F70D1D8
:1006B000D5F800C00127C2F808C0D2F804C0D5F8A8
:1006C00004806FF30C0C4CEA080CC2F804C091F8DB
:1006D00000C05FEACC7C09D0D2F800C0D1F8148009
:1006E0002CF4400C4CEA080CC2F800C091F800C091
:1006F0005FEA8C6C09D5D2F800C0D1F810802CF0DC
:10070000406C4CEA080CC2F800C00978490703D5D0
:10071000116841F080011160116841F08051116051
:10072000BFF35F8F116841F00041116047E011682D
:1007300021F0005111601168B9F1000F02D041F0B1
:10074000804101E021F0804111605B1C042B00D34B
:100750001B1F50F82320116821F08051116011688F
:10076000002903DB00EB83014969A9B150F824207B
:1007700000210CE0BFF35F8F136823F00043136088
:10078000641C042C00D3241F491C50F82420B942B7
:10079000F0D30220BDE8F083AD682968916051680C
:1007A000D5F804C06FF30C0141EA0C015160BFF3AE
:1007B0005F8F116841F000411160761C7F1CA968B1
:1007C0000029B4D11168B9F1000F02D041F0804185
:1007D00001E021F080411160116841F00051116089
:1007E00000EB8302416A5161036172B6761C816A33
:1007F0003144816262B60020CCE7000070B50C463F
:100800000168054601F5805188692B4A1040227B1A
:10081000EAB30022637B920642EA4362637FBBB382
:100820005FF0000342EA0352A37B42EA435263694A
:100830001A43237F42EAC312A37F42EA8312236A48
:100840001A4394F8243042EA830202438A612868FA
:1008500000F580508669012000F00CF9286800F549
:1008600080508661A169A06822790843216941EA24
:100870004261084394F8251040EAC110A16A40EA99
:1008800081002168084340F40001286801E00FE07E
:1008900010E000F580500160286800F58050046881
:1008A000012000F0E7F8286800F58050046070BD72
:1008B0000122AFE70123B5E7233FDEF870B50268F8
:1008C00005460C4610683A49237C0840A168002B75
:1008D00063D0002341EAC351637C002B5FD0002327
:1008E000E67F9B0543EA0643194363691943A37FE7
:1008F000F3B3002341EA4331237F41EA0331A36983
:100900001943237941EA832194F820308BB30023E3
:1009100041EA4321E37B41EAC311636A194394F836
:10092000283041EA0311014311602868066801205C
:1009300000F0A0F8286806602A6890694FF64171B7
:100940000840A36C216D41EA034194F84C3063B335
:10095000002394F85560DB01012E00D0002643EA05
:10096000C603194394F85630012B00D0002301E050
:1009700017E018E041EA830194F85430012B00D0CD
:10098000002341EA43010143916128688469012001
:1009900000F070F82868846170BD01239AE7012394
:1009A0009EE70123A6E70123B2E70123D1E7000078
:1009B0000F8120FF2DE9F843044600200090A56E2A
:1009C0004FF0010804EB8500E76E866C1CE0306A8E
:1009D00030B9684600F0F4F9009870B33062B06046
:1009E000B8F1000F10D0A06D40B344F2F850706021
:1009F000306840F0004030606D1C042D00D32D1F86
:100A000004EB85007F1E866C17B1B8F1000FDED1B4
:100A1000E06EB8420FD0681C00F00300BFF35F8F98
:100A2000216900EB800001EBC001206800F58050D7
:100A30008160C4E91A57BDE8F88300E002E04FF096
:100A40000008E1E70048D2E7F845008070B50546A8
:100A500000F0EEFB064C2168401A642807D300F032
:100A6000E7FB20602846BDE8704001F0D9BF70BDAB
:100A70003C00002070B5044600F0DAFB0546601C1F
:100A800002D004480078044400F0D2FB401BA0428E
:100A9000FAD370BD1C000020F8B5040003D0D4F8D0
:100AA000840010B107E00120F8BD2320C4F88400C1
:100AB000204600F079F839480025016841F480416A
:100AC0000160006800F4804000903548016821F41E
:100AD000000101600168A26811430160006820689C
:100AE00000F58050016841F00101016000F0A0FBB9
:100AF00006464FF4FA770BE000F09AFB801BB842F1
:100B000006D90420C4F88800E020C4F88400CAE7AD
:100B1000206800F580500068C007EDD12046FFF73F
:100B20003FFD0021E06801EB810200EBC20005609F
:100B300045608560C56004EB81039861036843F4F8
:100B400080130360032905D22826E36806EBC2025E
:100B50001A4400E0E268C260026842F440020260A7
:100B6000491C0429DED3A5622068E16800F58050A5
:100B700001612046FFF7C8FC60680A4982880A6460
:100B80000278D0F8010042EA00204864C4F8885096
:100B90001020C4F884000020F8BD00004438024052
:100BA0000438014000800240F0B587B01421684647
:100BB000FFF771FB2A480024016841F000710160D1
:100BC000016801F000710591016841F080610160E8
:100BD000016801F080610591016841F000610160E8
:100BE000016801F000610591016841F004010160B4
:100BF000016801F004010591016841F00101016003
:100C0000016801F001010591016841F040010160B6
:100C10000068022500F0400005903220CDE9000573
:100C200002AA03260B2782E8D00069460D4800F08F
:100C3000FBF98620CDE9000502AA694682E8D000CA
:100C4000094800F0F1F94FF4D040CDE9000502AABF
:100C5000694682E8D000054800F0E6F907B0F0BD2B
:100C600030380240000802400000024000180240F4
:100C70002DE9F84F4FF000075FEA01090446B84636
:100C800004D0D4F8840023285ED105E054F8880FFE
:100C900040F00100206057E0E66D4FF0000B04EBE0
:100CA0008600856CE06EC0F1040A3AE02868C00551
:100CB00003D5E869A067A86960672868800501D442
:100CC000E06F30B32868800503D5C4F860B0C4F87D
:100CD00064B0606900902868C00508D52868C0F332
:100CE0000D40001F009028684FF001082067AA6897
:100CF0002A62009804F1800183B2081F00F084F892
:100D0000206E401C2066616E009808446066C5F83D
:100D100020B0761C042E00D3361F04EB86007F1C07
:100D2000856C2868002804DB574502D2B8F1000F13
:100D3000BCD0E06EC019E06602D02046FFF73AFE54
:100D4000E665B8F1010F02D00120BDE8F88FE16F30
:100D5000C9F800100020C4F87CB0F6E72DE9F04196
:100D6000984603680546186900F01C044FF6FF70AA
:100D700000EAC1204FF4F861204301EA82110143E7
:100D800021F0020040F001041C6100F051FA064617
:100D90004FF480370AE000BF00F04AFA801BB842E7
:100DA00002D30120BDE8F08128680469E007F3D18F
:100DB0002868406981B20020C8F80010F2E70000FE
:100DC0001CB504460D4803F013FD03000FD003F1DA
:100DD000200020600A4818614FF4BF612068CDE907
:100DE000000100214122084604F028FA1CBD0549F3
:100DF00001200870002020601CBD0000D0BF00084A
:100E0000FD5800084000002010B5002442F8204D95
:100E10001481538104681CB10C6822600A6004E0EC
:100E20000260FBE701891944018100680028F9D1BB
:100E300010BD000070B505460068006920F01C0474
:100E400000F008FB1049114A0144914202D244F0DB
:100E5000080416E00E490F4A0144914202D244F0C0
:100E60000C040EE00C490D4A0144914209D30C498F
:100E700008440C49884202D244F0040401E044F0E2
:100E800010042868046170BD00D3CEFEC0E1E40008
:100E900040F1E9FD40787D0100796CFC005A620266
:100EA000001F0AFA80F0FA0270B50446D0F88400F8
:100EB000232801D0012070BD2320C4F884002068BD
:100EC00000F58050816921F400518161206800F5AE
:100ED0008050816921F0020181612068016821F060
:100EE00004010160206805680120FFF7C3FD206848
:100EF00005602046FFF73DFB2068016821F00801EE
:100F00000160206805680120FFF7B4FD20680560D6
:100F10001020C4F88400002070BD2DE9F041154672
:100F2000044621B1D4F88400232805D04EE054F8BB
:100F3000880F40F0010008E000222046FFF7A6FBE2
:100F400028B154F8880F40F0020020603EE0BFF363
:100F50004F8FA06A04EB8001401C8E69A0620428B8
:100F600001D3001FA06204EB80008169206800F5B6
:100F70008050416000F05CF9074619E0206800F5F8
:100F80008050406980040BD554F8880F40F0080069
:100F9000206054F8880C00F580504069606015E0CE
:100FA000681C05D000F044F9C01BA84206D82DB13A
:100FB00030680028E2DB0020BDE8F08154F8880F9B
:100FC00040F0040020604FF0405030600120F3E713
:100FD0002DE9F04106680546306900F01C044FF623
:100FE000FF7000EAC1204FF4F861204301EA82114A
:100FF000014398B241F0030470612868046100F075
:1010000017F906464FF480370AE000BF00F010F9E8
:10101000801BB84202D30120BDE8F0812868046932
:10102000E007F3D1F8E700002DE9F84FDFF8BCA1A5
:101030000022012503264FF00F090AF1040BAAF143
:10104000040E00BF0B6805FA02F42340A34270D1DE
:101050000F7907F00307012F01D0022F16D18768FF
:101060004FEA420806FA08FC27EA0C07D1F80CC040
:101070000CFA08FC4CEA070CC0F808C04768A74304
:101080000C79C4F3001494403C4344600C79E4436D
:10109000A4070AD0C4684FEA420C06FA0CF7BC4316
:1010A0008F6807FA0CF72743C7600C7904F0030434
:1010B000022C12D1D40800EB840CDCF82040570736
:1010C000FF0E09FA07F824EA0804D1F8108008FA9C
:1010D00007F848EA0408CCF8208004684FEA420C7C
:1010E00006FA0CF7BC430F7907F0030707FA0CF771
:1010F000274307604C6814F4403F70D03C4C27688D
:1011000047F480472760246822F0030704F48044F2
:101110000094384C07EB040CDCF8084897074FEABA
:10112000177809FA08F7BC43334FB84202D10027B9
:1011300024E054E0314FB84201D101271EE0304F86
:10114000B84201D1022719E02E4FB84201D103273E
:1011500014E02D4FB84201D104270FE02B4FB842C5
:1011600001D105270AE02A4FB84201D1062705E040
:10117000284FB84201D1072700E0082707FA08F7EF
:101180002743CCF80878DAF800405746D1F804C075
:101190009C435FEACC2C00D51C433C60DBF800404C
:1011A0005F46D1F804C09C435FEA8C2C00D51C43F9
:1011B0003C60DEF800407746D1F804C09C435FEA0B
:1011C0008C3C00D51C433C60084F083F3C68D1F87C
:1011D00004C09C435FEACC3C00D51C433C60521CDD
:1011E000102AFFF42FAFBDE8F88F0000083C014043
:1011F0004438024000300140000002400004024038
:1012000000080240000C024000100240001402409E
:1012100000180240001C02400AB1816170470904B5
:10122000FBE7000001480068000C7047002004E064
:1012300001488068704700001C0000200248816857
:1012400002781144816070471C000020094810B5E5
:10125000016841F400710160016841F4806101603E
:10126000032000F04BF80F2000F006F800F024F8FF
:10127000002010BD003C024070B50D4D04464FF4F7
:101280007A712878B1FBF0F00A490968B1FBF0F0F7
:1012900000F0CEFA48B9102C07D200222146501E89
:1012A00000F00CF800206C6070BD012070BD0000E3
:1012B0001C0000200000002070470000F0B40E4B1E
:1012C0001B680C46C3F30223C3F10705042D00D9A4
:1012D0000425191D072901D2002300E0DB1E012689
:1012E00006FA05F1491E214099409E40761E16409F
:1012F0003143F0BC00F090BC0CED00E0064900F07A
:10130000070208684FF6FF03184040EA0220034A2C
:1013100010430860704700000CED00E00000FA0583
:101320002DE9F0470E46050065D0DFF81481D8F8A6
:101330000000F7B200F00700B04207D288F8007052
:10134000D8F8000000F00700B04254D128683D4CA6
:10135000810712D5400703D5206840F4E050206093
:101360002878000703D5206840F46040206020689A
:10137000A96820F0F000084320602878C0072DD02D
:10138000304968680839012812D0022813D0032890
:1013900011D00968890700292DDA216821F003019D
:1013A00001432160FFF744FF814641F2883A0EE095
:1013B00009688903EFE709688901ECE7FFF738FF5F
:1013C000A0EB0901514502D90320BDE8F087206850
:1013D000696800F00C00B0EB810FEFD1D8F8001075
:1013E000404601F00701B14207D90770006800F0DC
:1013F0000700B04201D00120E7E72878400705D573
:101400002068E96820F4E05008432060287800074D
:1014100006D52068296920F4604040EAC1002060B8
:1014200000F01EF82168084AC1F30311515CC8405E
:101430000649086006480068FFF71EFF0020C4E761
:10144000003C02400838024004A5000800000020CB
:1014500020000020014800687047000000000020C4
:10146000154810B5006810F00C02144813D0144948
:10147000042A0FD0082A0ED10F4C241F226823689B
:1014800002F03F025B0207D52068C0F38810A0FB82
:10149000010106E0084610BD2168C1F38811A1FBD7
:1014A00000010023FEF78CFE2168C1F30141491CB5
:1014B0004900B0FBF1F010BD083802400024F400F0
:1014C00040787D012DE9F84F04006ED02078DFF8D8
:1014D0004C93C007A9F104054AD009F10400016842
:1014E000C1F38101012908D00068C0F381000228FE
:1014F0000AD1D9F80000400206D52868800337D504
:1015000060680028E1D033E06068B0F5803F10D01B
:10151000B0F5A02F286810D020F48030286028680B
:1015200020F4802028606068A8B1FFF781FE06469D
:101530000DE0286840F48030F4E740F48020286013
:10154000F7E700BFFFF774FE801B642873D8286894
:101550008003F7D50CE0FFF76BFE064605E000BF01
:10156000FFF766FE801B6428F0D828688003F7D454
:101570002078DFF8AC8280074FF0000A3ED5A748FC
:10158000001D016811F00C0F08D00068C0F3810045
:1015900002280BD1D9F80000400207D42868800740
:1015A00016D5E068012800D112E033E1E068B8B157
:1015B0000120C8F80000FFF73BFE064605E000BF2B
:1015C000FFF736FE801B0228C0D828688007F7D5B1
:1015D0002868216920F0F80040EAC10028600DE089
:1015E000C8F800A0FFF724FE064604E0FFF720FE3F
:1015F000801B02281FD828688007F7D420780007AE
:1016000022D5864F87486169703771B10121016029
:10161000FFF70EFE064604E0FFF70AFE801B0228D5
:1016200009D838688007F7D50EE0C0F800A0FFF7AA
:10163000FFFD064605E082E0FFF7FAFD801B022869
:101640007DD838688007F7D42078400768D5DFF860
:10165000CCB100270BF13C0BDBF80000C0000BD431
:10166000DBF8001041F08051CBF80010DBF80000EF
:10167000012700F0805000906B4E3068C00510D4F8
:10168000306840F480703060FFF7D2FD009005E0D4
:10169000FFF7CEFD0099401A022850D83068C005E7
:1016A000F6D55E4EA0686C3601280FD0052830684C
:1016B00010D020F001003060306820F0040030606D
:1016C000A068B8B1FFF7B4FD00900FE0306840F0BB
:1016D0000100F4E740F004003060F7E7FFF7A8FDF1
:1016E0000099411A41F28830814266D830688007FB
:1016F000F4D50EE0FFF79CFD009007E0FFF798FDA2
:101700000099411A41F28830814256D830688007EA
:10171000F4D42FB1DBF8001021F08051CBF8001089
:10172000A069C8B33D49091D0968C1F381010229B7
:101730004AD00228504607D0C8F8600000E03CE0DC
:10174000FFF776FD04463BE04746C8F86000FFF728
:101750006FFD064605E000BFFFF76AFD801B02280B
:101760002BD828688001F7D4D4E907010843A16A7F
:101770002E4A490802EB0141626A41EA821108439C
:1017800094F82C1040EA0161C9F800100120386675
:10179000FFF74EFD044606E03EE000BFFFF748FDC0
:1017A000001B022809D828688001F7D534E000BF63
:1017B000FFF73EFD001B022802D90320BDE8F88F89
:1017C00028688001F4D427E00128F7D0D9F8000078
:1017D000E26900F4800191421CD1226A00F03F01CD
:1017E000914217D147F6C071626A0140B1EB821F86
:1017F00010D1A26A4FF0FF3300F4403103EB5202E4
:10180000B1EB024F06D194F82C1000F07060B0EBF1
:10181000016F01D00120D1E70020CFE7043802405A
:1018200000004742800E4742007000400000FFFF6A
:1018300010B5401EB0F1807F01D3012010BD4FF0E4
:10184000E02460610F21601700F0E6F90020A0613C
:1018500007202061002010BDFEE738B504460020B7
:10186000009063696A460121206898476FF004057B
:10187000002825DB63696A46012120689847002813
:101880001EDB0098400701D4012038BD63696A4619
:10189000002120689847002812DB0098C10408D472
:1018A0004FF4045181431CD081041CD4C0051CD4C6
:1018B00015E063696A461F2120689847002801DA0D
:1018C000284638BD0098C10401D4062038BDC0F3B5
:1018D0008200062805D0022805D0052805D005205D
:1018E00038BD022038BD032038BD042038BD2DE9A5
:1018F000F843044600200646054600906068A8BBF1
:10190000A06800B1804720206FF004072060636961
:101910006A46122130469847002801DA3D4607E022
:10192000009800F01F00B04202D10025266002E0BE
:10193000761C1F2EEBD920681F2802D96FF00205F4
:1019400030E07DBB23694FF4004200219847002816
:1019500030DB63696A46002120689847002827DB4E
:10196000A069804706464FF4FA780CE00EE0A069C3
:101970008047801B404518D863696A46002120686B
:101980009847002814DB00980004F0D4A069804731
:1019900006464FF4FA67A0698047801BB842FAD91F
:1019A000012060602846BDE8F8836FF00105F9E783
:1019B0003D46F7E76FF00305F4E788B1CA687AB1EE
:1019C0008A686AB10A695AB10A6882604A68C26064
:1019D000CA6842618A6802610969816100207047B2
:1019E0004FF0FF30704700002DE9F0411E4E0024FB
:1019F00030463189C0881D4D102915D2814213D33C
:101A000001EB411005EB8000B0F8800080B2FEF7DA
:101A100025FD308900EB401105EB8101BDE8F04167
:101A2000001D80B2FEF7F6BC814201D2753189B249
:101A300010398EB24FF07508A119B1FBF8F208FB0E
:101A4000121000EB401005EB8007B7F8800080B261
:101A5000FEF704FD3946201DFEF7DCFC641CE4B2F1
:101A6000112CE9D3BDE8F08128000020F40100200A
:101A70002DE9F04186B014216846FEF70CFC2048A1
:101A8000016841F020010160016801F02001059129
:101A9000016841F00801016000681A4F00F0080079
:101AA0004FF400760590002231463846FFF7B4FB2C
:101AB000DFF85480012208214046FFF7ADFB0124E6
:101AC00002250096CDE90145694638460395FFF7A2
:101AD000ABFA0820CDE9000469464046CDE902454D
:101AE000FFF7A2FA012208214046FFF795FB0022EA
:101AF00031463846FFF790FB06B0BDE8F0810000A4
:101B00003038024000140240000C0240FEE77047EB
:101B1000FFF794BB30B51F4893B00025016841F032
:101B200080510160006800F0805011901A480168EF
:101B300041F4804101600068022400F4804011906B
:101B400001200090000401908001CDE90640192099
:101B500008904FF4A870CDE9090407200B9068465F
:101B6000FFF7B0FC0CA90F2081E831004FF4A05022
:101B7000E402CDE90F0405210CA8FFF7D1FBFFF724
:101B800051FBA04204D90548016841F4807101600D
:101B900013B030BD4038024000700040003C0240AD
:101BA0001048016841F4700101600F48016841F07C
:101BB000010101600C4A00210832116002680B4BE0
:101BC0001A400260031D0A4A1A60026822F4802249
:101BD000026005480C3001600249580680390860EF
:101BE0007047000088ED00E000380240FFFFF6FE7D
:101BF00010300024FEE700000FB4054B10B503A918
:101C0000044A029800F028F810BC5DF814FB0000AC
:101C1000E92B0008F40000200907090E002804DB66
:101C200000F1E02080F80014704700F00F0000F190
:101C3000E02080F8141D704702E008C8121F08C198
:101C4000002AFAD170477047002001E001C1121F3D
:101C5000002AFBD1704700002DE9FF4F8BB09A4658
:101C60000F460546002606E025280BD052460D9962
:101C700090476D1C761C28780028F5D10FB03046AF
:101C8000BDE8F08F0024A0460122604900E0044333
:101C900015F8013F203B02FA03F00842F7D12878FB
:101CA0002E2817D115F8010F44F004042A280ED06D
:101CB0006FF02F022878A0F1300109290AD808EB2B
:101CC000880102EB410100EB01086D1CF2E757F8B7
:101CD000048B6D1C287869283ED006DC0028CDD006
:101CE00063280BD0642804D136E0732810D07528FF
:101CF0004BD052460D999047761C85E017F8040B9F
:101D00008DF8000000208DF80100E946012003E075
:101D100057F8049B4FF0FF3061074FF0000401D4E7
:101D20000AE0641C44450DDA8442FADB19F8041019
:101D30000029F6D106E0641C8442FCDB19F804108B
:101D40000029F8D1264404E019F8010B52460D99F8
:101D50009047641EF8D257E001CF4FF00A0B0028DD
:101D600002DA40422D2102E0210504D52B218DF815
:101D70002410012103E0E10705D02021F7E70DF150
:101D8000200908910CE00021F9E701CF4FF00A0B80
:101D9000F9E75946FEF797FA01F1300209F8012DEB
:101DA0000028F6D1ADEB090000F1200B600701D44B
:101DB0004FF00108D84502DDA8EB0B0000E0002041
:101DC0008046002406E009A85246005D0D99904720
:101DD000641C761C08988442F5DB04E030205246EF
:101DE0000D999047761CB8F10001A8F10108F5DCC7
:101DF00005E019F8010B52460D999047761CBBF18E
:101E00000001ABF1010BF4DC6D1C34E70928010083
:101E100070B505460C46880706D006A34FF4B67287
:101E200014A11CA0FFF7E8FEA86800682060A8685D
:101E3000046070BD2E2E2F2E2E2F2E2E2F2E2E2FE5
:101E40002E2E2F2E2E2F4D6964646C65776172657E
:101E5000732F54686972645F50617274792F4C7784
:101E600049502F7372632F636F72652F6D656D70AC
:101E70002E6300006D656D705F667265653A206D5A
:101E8000656D2070726F7065726C7920616C696726
:101E90006E656400417373657274696F6E202225EC
:101EA0007322206661696C6564206174206C696EC0
:101EB0006520256420696E2025730A0010B58068AE
:101EC0000468002C0CD021680160A00706D005A38F
:101ED0004FF48C7213A11CA0FFF78EFE204610BD9C
:101EE000002010BD2E2E2F2E2E2F2E2E2F2E2E2FD9
:101EF0002E2E2F2E2E2F4D6964646C6577617265CE
:101F0000732F54686972645F50617274792F4C77D3
:101F100049502F7372632F636F72652F6D656D70FB
:101F20002E6300006D656D705F6D616C6C6F633A60
:101F3000206D656D702070726F7065726C792061B4
:101F40006C69676E65640000417373657274696FD4
:101F50006E2022257322206661696C65642061749D
:101F6000206C696E6520256420696E2025730A0047
:101F700070B5094D0646002404EB440005EBC00093
:101F8000017D29B18068B04202D1204600F01CF9E1
:101F9000641C0A2CF0DB70BDF80000202DE9F74F1F
:101FA00084B04FF00A0B00240646DA465F46D94655
:101FB00002940194CDF80040514904EB440001EB38
:101FC000C008039098F814500A2F1DD0002D2AD075
:101FD000012D08D0022D06D24A4B40F223124AA10D
:101FE00059A0FFF709FE9EB13168D8F8040081427C
:101FF0000ED1069820B1D8F808100698814207D172
:10200000204607B0BDE8F08F002DE1D127460AE059
:10201000012D16D0022D06D3B8F81200009988427F
:1020200001D3A2460090641C24B20A2CC4DB05989C
:1020300081074FF0FF30E4D40A2F16D018DA3C465F
:102040003EE02F49039851F830000028B8F81200FC
:1020500005D002998842E6D3A1460290E3E70199B0
:102060008842E0D3A3460190DDE70599C907C8D0AF
:102070005146BAF10A0F0EDA0C46214801EB440131
:1020800050F8310080B11F4B40F26D1238A12EA0E4
:10209000FFF7B2FD08E05946BBF10A0F03DB4946E2
:1020A000B9F10A0FADDA0C460A2C06DB154B40F2EB
:1020B0007F1235A124A0FFF79FFD204600F084F891
:1020C0000A2C06DB0F4B40F283122FA11EA0FFF754
:1020D00093FD0B4804EB440100EBC105287D30B1B2
:1020E000084B4FF4C2722DA117A0FFF785FD0EB16A
:1020F00030686860002068820698A86080E7000069
:10210000F8000020B4C100087374617465203D3D7F
:10211000204554484152505F53544154455F504507
:102120004E44494E47207C7C207374617465203E88
:102130003D204554484152505F53544154455F53EC
:102140005441424C45000000417373657274696FDD
:102150006E2022257322206661696C65642061749B
:10216000206C696E6520256420696E2025730A0045
:102170006172705F7461626C655B695D2E71203D98
:102180003D204E554C4C000069203C204152505F90
:102190005441424C455F53495A4500006172705F9B
:1021A0007461626C655B695D2E7374617465203D5A
:1021B0003D204554484152505F53544154455F457A
:1021C0004D5054590000000070B5074C00EB40051D
:1021D000002654F8350018B103F0DCFA44F83560F5
:1021E00004EBC500067570BDF80000202DE9F04332
:1021F00085B00D00074609D07C684FF480782088B0
:10220000404539D12079062836D109E01C4B40F2EF
:102210008A221CA11FA0FFF7EFFC05B0BDE8F083E8
:102220006079042828D16088082825D1D4F80E00C8
:102230000490A169686820B1814202D10126334629
:1022400001E00026022304F10802914604A9284671
:1022500000F020FBE08840450ED16EB1022204ABB5
:10226000CDE90232291DCDE9001905F126031946F1
:102270004A46284600F028FA384603F08BFACCE7A5
:10228000B4C100086E6574696620213D204E554C2E
:102290004C000000417373657274696F6E202225D3
:1022A0007322206661696C6564206174206C696EBC
:1022B0006520256420696E2025730A00FEB5154649
:1022C0000E46040006D1434B40F21E3242A146A006
:1022D000FFF792FC36B93F4B40F21F324CA142A0AF
:1022E000FFF78AFC35B93B4B4FF448724BA13EA037
:1022F000FFF782FC2146286800F071FE08B14B4BC5
:102300003FE02868C0F303110E2925D0A168636857
:1023100000EA01020B409A4208D080B2A0F57E414B
:10232000A93903D0E068B0B304F10C05404B414833
:102330001A7802EB420100EBC1010F7D022F2ED370
:102340008F68A7422BD12F6849688F4227D1314629
:10235000204600F071F8FEBD01208DF80400002039
:102360008DF805005E208DF80600687801AB00F05E
:102370007F008DF80700A8788DF80800E8788DF8C0
:1023800009004FF40060009004F126023146204617
:1023900000F066FBFEBDFFE76FF00300FAE70022E6
:1023A00002EB420100EBC1010F7D022F08D38F68C1
:1023B000A74205D12F6849688F4201D11A70C6E73C
:1023C000521CD2B20A2AEBD332462946204600F0EC
:1023D000A1F8DFE7B4C100086E6574696620213D8D
:1023E000204E554C4C000000417373657274696F48
:1023F0006E2022257322206661696C6564206174F9
:10240000206C696E6520256420696E2025730A00A2
:102410007120213D204E554C4C00000069706164D4
:10242000647220213D204E554C4C0000DCBF00085A
:102430000E000020F80000202DE9F843064615465E
:1024400088461C4802EB450100EBC104207D0228B0
:1024500006D2194B40F2EE2218A124A0FFF7CCFBC4
:10246000144A05EB4501207D02EBC1050C3502281D
:1024700013D1608A0327B0F58E7F04D9211D304621
:1024800000F0C2F907E0B0F5877F06D32A46211D88
:10249000304600F0BFF900B927754FF40060009096
:1024A0002B4606F126024146304600F0D9FABDE837
:1024B000F8830000F8000020B4C100086172705F6A
:1024C0007461626C655B6172705F6964785D2E73C4
:1024D00074617465203E3D204554484152505F531D
:1024E000544154455F535441424C45004173736518
:1024F0007274696F6E2022257322206661696C6593
:1025000064206174206C696E6520256420696E20EA
:1025100025730A002DE9FC5F8246263001900E46A5
:10252000086814464FF0FF374FF0000B514600F09B
:1025300056FD80B93068C0F303110E290BD056B197
:1025400048B1524601213046FFF728FD050005D568
:1025500040B2BDE8FC9F6FF00F00FAE77F2D06D375
:10256000374B40F2C13237A13AA0FFF745FB05F0E7
:10257000FF09424909EB490801EBC805287D70B104
:10258000012808D0022806D22D4B40F2CD323CA1C2
:1025900030A0FFF731FBBBF1000F06D104E00120B2
:1025A0002875C5F808A000E034B93146504600F05F
:1025B0002BF90746002CCCD0287D304E02280ED3B4
:1025C00039494FF4006005F10C0381F80090009048
:1025D00021465046019A00F043FA07462DE00128B3
:1025E0002BD1254640F2F13768892989884207D1E5
:1025F000286828B1124B3A462CA116A0FFF7FCFA26
:10260000287B400607D522464FF420710E2002F0A9
:10261000DBFE044605E02D68002DE5D1204603F0E1
:1026200037FA44B156F8380008B103F0B3F846F869
:102630003840002701E04FF0FF37384689E70000B7
:10264000B4C1000874797065206F766572666C6F2E
:1026500077000000417373657274696F6E202225E4
:102660007322206661696C6564206174206C696EF8
:102670006520256420696E2025730A00F80000207B
:102680006172705F7461626C655B695D2E73746109
:102690007465203D3D2050454E44494E47206F72A1
:1026A00020535441424C45000E0000206E6F2070B4
:1026B00061636B65742071756575657320616C6C01
:1026C0006F776564210000002DE9FF4F81B09846C7
:1026D000DDE90FA9DDF838B006004FF0000706D19C
:1026E0002C4B40F257422CA12FA0FFF785FA4FF454
:1026F00020721C210E2002F021FC050046D06889C2
:102700001C2806D2234B40F2624231A126A0FFF7DB
:1027100073FA6C68119801F0C5FBE08096F82C0004
:10272000062806D01B4B40F2694236491EA0FFF72F
:1027300063FAD8F80010A160B8F80400A081DAF8B4
:102740000010C4F81210BAF80400E082DBF80000B0
:10275000C4F80E00D9F80000A0614FF4807020800A
:1027600008206080062020710420607140F6060079
:10277000DDE9022300902946304600F071F9284631
:1027800003F008F8384605B0BDE8F08F4FF0FF3091
:10279000F9E70000B4C100086E6574696620213D48
:1027A000204E554C4C000000417373657274696F84
:1027B0006E2022257322206661696C656420617435
:1027C000206C696E6520256420696E2025730A00DF
:1027D000636865636B2074686174206669727374E2
:1027E00020706275662063616E20686F6C64207370
:1027F0007472756374206574686172705F68647266
:102800000000000070C10008014A00F003B8000099
:10281000DCBF00087FB5064D031D0124CDE900355E
:10282000CDE9021422331946FFF74EFF04B070BD04
:10283000E2BF000870B5164D002400BF04EB440051
:1028400005EBC002117DF1B1508A401C80B250826C
:10285000B0F5967F0AD2012906D003290AD00429AF
:102860000AD001290BD00EE0052808D32046FFF737
:10287000ABFC08E0042000E00220107503E0111D0D
:102880009068FFF7C1FF641C0A2CD7DB70BD000005
:10289000F8000020F8B5044690F82C001F461646B4
:1028A0000D46062806D0204B40F2A9121FA128A0F1
:1028B000FFF7A2F99DB1286888B1214600F08FFB8F
:1028C00068B92878C0F303100E2808D0224639468C
:1028D0002846FFF763FB002804DA40B2F8BD6FF02A
:1028E0000F00F8BD00EB40012348022300EBC102BA
:1028F000137594603368D360B388138200235382C6
:1029000050F8315075B140F831304FF4006000900C
:10291000334604F126022946204600F0A1F8284655
:1029200002F038FF0020F8BDB4C100086E6574697C
:10293000662D3E6877616464725F6C656E203D3D14
:10294000204554485F4857414444525F4C454E002F
:10295000417373657274696F6E202225732220663D
:1029600061696C6564206174206C696E6520256402
:1029700020696E2025730A00F80000202DE9F0413F
:10298000044640890E270D460E283CD9E07B18B935
:1029900095F83000401CE073606801788689CA07AA
:1029A00014D0012905D006221C49FDF77FFC48B14F
:1029B0000CE0417851B980785E2807D1607B40F007
:1029C000100002E0607B40F008006073082E03D026
:1029D000B6F5C16F17D10DE095F82D00000712D59F
:1029E0003946204603F0A2F868B92946204600F08F
:1029F00021FC10E095F82D00000704D5394620464B
:102A000003F094F818B1204602F0C4FE03E0294612
:102A10002046FFF7EBFB0020BDE8F081DCBF00089B
:102A200010B59AB0044664216846FDF734FC0A48A4
:102A3000FEF713FF94F82D1049070BD5012809D88C
:102A40000548E838FEF730FA204602F051F92046F2
:102A500002F0ACF91AB010BDA4400020704700008D
:102A60002DE9F04104461F4690460E46069801F0B7
:102A700019FA05460E21304602F0F4F918B16FF04C
:102A80000100BDE8F0817068858139680160B9880E
:102A90008180D8F80020C0F80620B8F804104181E1
:102AA00094F82C00062806D0064B4FF4997206A124
:102AB00012A0FFF7A1F831462046A269BDE8F04117
:102AC0001047000040C200086E657469662D3E68BC
:102AD00077616464725F6C656E206D7573742062DB
:102AE00065203620666F722065746865726E657445
:102AF0005F6F757470757421000000004173736519
:102B00007274696F6E2022257322206661696C657C
:102B100064206174206C696E6520256420696E20D4
:102B200025730A0010B5040006D10BA34FF48D7273
:102B30000EA112A0FFF760F8732084F82E00742015
:102B400084F82F00174860611748A061204601F003
:102B5000F5F8002010BD00002E2E2F5372632F6554
:102B6000746865726E657469662E63006E6574695B
:102B70006620213D204E554C4C000000417373658A
:102B80007274696F6E2022257322206661696C65FC
:102B900064206174206C696E6520256420696E2054
:102BA00025730A00BD220008F53D0008F8B50C4F5A
:102BB000054600260096387818B969460948FEF798
:102BC00057F8009C002C09D02A69294620469047D6
:102BD0000028EFD0204602F0DDFDEBE7F8BD000055
:102BE00040000020BC3F00202DE9F05F0646FDF7C5
:102BF00029FC3C4C0546A078002870D160784FF045
:102C00000009012809D1A08920816089E08084F829
:102C1000019084F80390A4F80E90FDF719FCA988A0
:102C2000B4F80480B0FBF1F12F48F7B241450DD95B
:102C30000A2E0BD0218901EB411100EB810000F835
:102C4000087008F10108A4F8048048E0E1882289AE
:102C5000914203D322782AB184F800904FF0200BE0
:102C6000824613E0491C89B2E1807529F6D1A4F8A7
:102C70000690F3E7218908F1010801EB4113A188CF
:102C80000AEB830303F801B0491CA180FDF7E0FBC8
:102C9000A988B0FBF1F04045ECD82089216900EB10
:102CA00040120AEB82004D46C0F88010A4F8049050
:102CB000FEF79AFE2089401C80B22081752803D13E
:102CC00025810120E08020700A2E08D0208900EBA9
:102CD0004011A0880AEB81010F54401CA0803046AF
:102CE000BDE8F09F28000020F40100200A460321DF
:102CF00000F0DEB82DE9FE4F8A4646490446D1F879
:102D0000088098F800000007850E142D7CD3608998
:102D1000042879D360680078002875D0082873D11A
:102D2000486901F11407C0F303120E2A6CD08946DA
:102D3000096800F054F9002866D12089082863D377
:102D4000204600F027F900285ED105F10E010E465D
:102D5000204602F087F800282FD02089411989B237
:102D6000884251D84FF420720E2002F0E7F8060096
:102D70004AD0718905F10800814215D32A4641469F
:102D80007068FDF761FA2946304602F0CFFE30B197
:102D9000214BB62221A12FA0FEF72EFF04E02146F1
:102DA000304602F069FB18B1304602F0F3FC2BE02C
:102DB000204602F0EFFC34460BE03146204602F09C
:102DC000B5FE30B1144BC7222CA122A0FEF714FF90
:102DD0001AE029462046666802F044F8A0B9606807
:102DE0003968FF22C160D9F81010016100213170EB
:102DF00071800272418101228DE806040A46FF2398
:102E00003946204600F0E6FA2046BDE8FE4F02F0C3
:102E1000C1BC00001CA60020FCC1000869636D70E5
:102E20005F696E7075743A206D6F76696E67207297
:102E30002D3E7061796C6F616420746F2069636DE1
:102E40007020686561646572206661696C65640AFA
:102E500000000000417373657274696F6E20222553
:102E60007322206661696C6564206174206C696EF0
:102E70006520256420696E2025730A0069636D70E2
:102E80005F696E7075743A20726573746F72696EE3
:102E900067206F726967696E616C20702D3E70618A
:102EA000796C6F6164206661696C65640A0000007A
:102EB0002DE9FF479146884606464FF420722421AB
:102EC000222002F03BF8050031D06889242806D280
:102ED000184B4FF4B47218A122A0FEF78DFE6C6857
:102EE00077681C2284F8008084F801904FF0000875
:102EF000A4F80480A4F80680686871680830FDF7BB
:102F0000A3F9F868039003A800F040FC60B1A4F8AE
:102F100002800122CDF80080CDE90120FF2303AA21
:102F20000021284600F056FA284602F033FCBDE89E
:102F3000FF870000FCC10008636865636B2074684C
:102F400061742066697273742070627566206361B3
:102F50006E20686F6C642069636D70206D6573739B
:102F600061676500417373657274696F6E20222515
:102F70007322206661696C6564206174206C696EDF
:102F80006520256420696E2025730A000A460B21FE
:102F9000FFF78EBF70B500263446054612E06989FA
:102FA000686800F091FF2044010C11FA80F4A87ABF
:102FB000C00706D08EB10026E0B2C4F3072141EA73
:102FC00000242D68002DEAD126B1E0B2C4F3072118
:102FD00041EA0024E04380B270BD0126ECE7421CC8
:102FE00012D088B191F82D2092070BD54B688342FF
:102FF00008D0896800EA01020B409A4202D10143DD
:10300000491C01D000207047012070472DE9F74F7F
:1030100088B00446099800251426808CAF1F143808
:10302000C11700EB5170C0F3CF00039060680690A9
:10303000017801F00F01052903D038460BB0BDE837
:10304000F08F6189142907D25B4B4FF43F725BA16B
:1030500061A0FEF7D1FDF0E7C08800F023FFC0F3C8
:103060000C0100F4005002910790208914381FFAD7
:1030700080F88EE003984FF6FF7101EAC0004146E8
:10308000404500D9084604904FF4207214210E20C8
:1030900001F054FF5FEA000A7ED0BAF80A00142853
:1030A00006D2454B4FF4497255A14BA0FEF7A4FD43
:1030B0001422DAF804000699FDF7C6F8DAF80400DD
:1030C0000590049F35E06089811B8DB2B04206D225
:1030D000394B40F22D3252A13FA0FEF78DFDAF4299
:1030E00000D23D461DB3052001F028FB5FEA000930
:1030F00057D060684B463044CDE90005412229464F
:10310000002002F09BF85FEA000B50D0204602F04E
:10311000BFFC4749C9E904145946504602F0AAF8D1
:10312000781B07043F0C06D000262468CBE72468F0
:103130000026002FC7D1701986B20998808C1438E8
:1031400040450298C0F30C0001DB079909B140F437
:10315000005000F0A7FE0599C8800498143080B292
:1031600000F0A0FE0599488005980021418109984A
:1031700051460A9A43699847504602F00BFB04995E
:10318000A8EB01001FFA80F8DDE90201084480B2D3
:103190000290B8F1000F00E006E07FF46BAF002072
:1031A0004CE7504602F0F6FA4FF0FF3046E748464B
:1031B00000F01CFBF5E70000E4C000086970345F14
:1031C0006672616728293A207062756620746F6F95
:1031D0002073686F72740000417373657274696F55
:1031E0006E2022257322206661696C6564206174FB
:1031F000206C696E6520256420696E2025730A00A5
:1032000074686973206E65656473206120706275EF
:103210006620696E206F6E652070696563652100A8
:10322000702D3E6C656E203E3D20706F666600001E
:10323000DD3C00082DE9F047456807460E46287832
:103240000421B1EB101F03D0384602F0A3FA77E057
:1032500000074FEA9068688800F024FE0446388929
:10326000A04203D92146384602F070FB79894145D6
:10327000EAD33889A042E7D3B8F1140FE4D329691F
:10328000DFF81C91C1F303100E28C9F81410EA6886
:10329000C9F8102005D0304600F086F850B1344609
:1032A00019E096F82D00C00702D070680028F6D10A
:1032B000002410E099F8140000247F280BD039482E
:1032C000046806E0B44203D0204600F06DF810B95F
:1032D0002468002CF6D13146D9F81000FFF77FFEA4
:1032E0000028B1D199F81000C0F303100E28ABD01C
:1032F000002CA9D0E88830F0C00005D0384600F096
:103300001DF907001CD07D68C9F80850C9E90046BE
:10331000297838460907890EA9F80C10414602F0B1
:1033200005FC687A012818D0062811D011280AD087
:103330004D462146D9F81400FFF751FE90B11EE02A
:103340000020BDE8F0873146384606F037FF19E027
:103350003146384603F0B8FC14E031463846FFF7F2
:10336000C9FC0FE0287DC0F303100E2807D04146AA
:10337000384602F0D3FA02213846FFF7B7FC384648
:1033800002F008FA0021C9F80010C9F80410C9F8C1
:103390000810A9F80C10C9F81010C9F81410CFE7DC
:1033A0001CA600206000002010B590F82D10C90761
:1033B0000CD0416851B1064A52698A4204D0014694
:1033C0001046FFF70CFE08B1012010BD002010BD13
:1033D0001CA60020FEB5DDE90954089E1AB109B10A
:1033E0000F6807B9211D0096CDE9015400F002F8DD
:1033F000FEBD00002DE9F84F0546DDE90BA8807BF6
:10340000DDF828B01F4616468946012806D02F4B06
:103410004FF455722EA131A0FEF7EEFB6FF00104C0
:10342000002E35D01421284601F01CFD002832D191
:1034300068896C68142806D2244B4FF4627231A15B
:1034400026A0FEF7D9FB277284F809A03068206116
:103450004520207084F801B0288900F023FD354F05
:1034600060804FF0000AA4F806A0388800F01AFD2A
:10347000A0803888401C3880B9F1000F05D0D9F8F9
:103480000000E060A4F80AA00CE02B480068F8E710
:103490006889142802D22046BDE8F88F68686E4615
:1034A00000690090B8F8240040B12989814205D90B
:1034B000324641462846FFF7A9FDEDE7D8F814301B
:1034C0004046324629469847E6E700002CC10008EE
:1034D000702D3E726566203D3D203100417373655D
:1034E0007274696F6E2022257322206661696C6593
:1034F00064206174206C696E6520256420696E20EB
:1035000025730A00636865636B20746861742066C4
:103510006972737420706275662063616E20686FD3
:103520006C64207374727563742069705F68647270
:10353000000000000C00002014A500082DE9F05F39
:1035400045688346287800F00F0005287DD1E8887B
:1035500000F0A8FCC004070C688800F0A3FC2978E0
:103560000907890E814270D8401A1FFA80F8584620
:1035700001F020FF6A4C0646208830440A2809D909
:103580003146284600F054FB00285ED020883044A5
:103590000A28E8D8A14664684FF0000A0CE0606988
:1035A000E968884207D1A0692969884203D1A089C6
:1035B000A988884203D02468002CF0D106E02CB101
:1035C000E88800F06FFCC0041BD025E0042001F067
:1035D000B5F804000AD13146284600F029FBB04274
:1035E00033DB042001F0AAF80400CED02021FCF740
:1035F00052FE0F20E077D9F804102160C9F804408A
:1036000004E0E08900F04EFCC00405D014222946F5
:1036100004F10800FCF718FEA87940F340156D1C72
:1036200008D007EB080080B2B84263D34FF6EB71C5
:1036300088425FD82A465946204600F003F9411CCB
:1036400058D0B9F80020324400E064E0A9F8002026
:1036500035B107EB0801A183A17F41F00101A177FA
:10366000012845D1A08B1422143087B2606804F180
:103670000801456828462E68FCF7E6FD384600F04C
:1036800011FC6880A5F806A0A5F80AA0656809E005
:1036900014213046776802F049FA3146284601F095
:1036A000E9FD3E68002EF3D1D9F804104E468C4255
:1036B00005D1002105E00868A04202D0014600299A
:1036C000F9D1204600F0C6F9284601F073FE044601
:1036D0003088A04206D2134B40F29B2212A119A0BF
:1036E000FEF78AFA3088001B30802846BDE8F09F3C
:1036F0000020FBE7606870B9D9F80400844206D066
:10370000084B40F2AB2219A10EA0FEF775FA00217A
:10371000204600F09FF9584602F03CF8E8E7000028
:1037200004000020E4C0000869705F726561737373
:103730005F70627566636F756E74203E3D20636CCA
:10374000656E0000417373657274696F6E20222587
:103750007322206661696C6564206174206C696EF7
:103760006520256420696E2025730A006E6F742021
:103770006669727374616C74686F756768206A75C6
:10378000737420656E7175657565640070B501466A
:10379000144813E090F82D20D3070FD053070DD510
:1037A00043685BB184680D68234005EA04069E42C5
:1037B00016D0920702D4C268954211D00068002842
:1037C000E8D10948006850B190F82D20D30706D001
:1037D000520704D5426812B109787F2900D1002030
:1037E00070BD0000600000206400002010B50400DF
:1037F00006D1064B4FF4317205A108A0FEF7FCF983
:103800002146BDE81040052000F0D0BEE4C000080D
:103810007020213D204E554C4C00000041737365D3
:103820007274696F6E2022257322206661696C654F
:1038300064206174206C696E6520256420696E20A7
:1038400025730A002DE9F05F4C68064693460F4643
:1038500000254FF00108608800F024FB21784FF02C
:10386000FF3A0907890E814231D8A0EB0109E088AF
:1038700000F018FBC0047C68010C0020206001EB04
:10388000090083B2A180E3808B4220D3726829E0D3
:103890005068B0F804C0614515D222606DB1B5F82A
:1038A00006C0614513D38088834210D82F60A0885A
:1038B000844506D04FF0000803E08088834206D894
:1038C00077608AB12EE002D0C288914202D250467F
:1038D000BDE8F09F25B1EA88624501D04FF00008AD
:1038E00002680546002AD3D195B1E888A1888842AC
:1038F00006D92A4B4FF4DB7229A131A0FEF77CF9DF
:103900002F60E888A18888420CD04FF0000809E0B9
:10391000706830B1214B4FF4DF7233A128A0FEF75D
:103920006BF97760BBF1000F02D1B07FC007CFD039
:10393000B8F1000F30D07268002A2DD0506880880E
:10394000002829D12168204629B14C68C088A18867
:103950008842F7D020E0B8F1000F1DD032B90F4BEC
:1039600040F2DF122EA116A0FEF746F970684068FB
:10397000A04206D1094B4FF4F07229A110A0FEF726
:103980003BF9206830B1054B4FF4F17228A10CA02F
:10399000FEF732F901209BE7002099E7E4C0000818
:1039A000636865636B20667261676D656E74732012
:1039B000646F6E2774206F7665726C617000000012
:1039C000417373657274696F6E20222573222066BD
:1039D00061696C6564206174206C696E6520256482
:1039E00020696E2025730A006E6F207072657669FB
:1039F0006F757320667261676D656E742C207468D4
:103A00006973206D75737420626520746865206623
:103A10006972737420667261676D656E742100004F
:103A200073616E69747920636865636B00000000E0
:103A300076616C69646174655F6461746167726109
:103A40006D3A6E6578745F70627566213D4E554CB7
:103A50004C00000070B504460B480D464168A14279
:103A600002D12168416009E035B9084B40F24512A6
:103A700007A10EA0FEF7C0F8206828602146BDE827
:103A80007040042000F092BD04000020E4C0000853
:103A900073616E69747920636865636B206C696E0D
:103AA0006B6564206C69737400000000417373657A
:103AB0007274696F6E2022257322206661696C65BD
:103AC00064206174206C696E6520256420696E2015
:103AD00025730A002DE9F047054600240F46A94248
:103AE00005D12E4BAB222EA130A0FEF785F847B1B1
:103AF0003868A84205D0294BAD2236A12BA0FEF78D
:103B00007BF86E684FF4803870688188D1B900689E
:103B10006860142205F108017068FCF795FB01212B
:103B20003046FFF733FA304601F044FC0446404586
:103B300005D31A4BBC222CA11CA0FEF75DF8304621
:103B400001F028FE6E6812E07068B14606684846CB
:103B500001F030FC0444444505D3104BCC2222A193
:103B600012A0FEF749F8A4B2484601F013FE002E59
:103B7000EAD139462846FFF76DFF234D2888A04239
:103B800005D2064BD22221A108A0FEF735F82888DD
:103B9000001B28802046BDE8F0870000E4C0000834
:103BA0007072657620213D206970720041737365E3
:103BB0007274696F6E2022257322206661696C65BC
:103BC00064206174206C696E6520256420696E2014
:103BD00025730A00707265762D3E6E657874203DFF
:103BE0003D2069707200000070627566735F6672D6
:103BF000656564202B20636C656E203C3D20307829
:103C000066666666000000000400002069705F724E
:103C1000656173735F70627566636F756E74203E65
:103C20003D2070627566735F6672656564000000B2
:103C30002DE9F0471D4F8946064600240022134611
:103C400011461546786822E0D0F814C0D6F80C80EA
:103C5000C4450BD1D0F818C0D6F81080C44505D1A2
:103C6000B0F80CC0B6F80480C44509D06D1C2AB168
:103C700090F81FC092F81F80C44501D8024619462B
:103C8000D0F800C0BCF1000F00D003466046002809
:103C9000DAD11AB11046FFF71DFF04444C4501DA92
:103CA000012DCBDC2046BDE8F08700000400002099
:103CB00070B50948002544680BE0E07F20B1401E44
:103CC000E0772546246804E0204624682946FFF76B
:103CD00001FF002CF1D170BD0400002010B50400DC
:103CE00006D1084B40F2CE2207A10AA0FDF784FFBF
:103CF000606908B101F04EFD2046BDE81040FFF7B5
:103D000075BD0000E4C0000870637220213D204EA4
:103D1000554C4C00417373657274696F6E20222597
:103D20007322206661696C6564206174206C696E21
:103D30006520256420696E2025730A007CB527A1C3
:103D40000446D1E90001CDE9000127482549016079
:103D5000C0F804D04FF400018160A0F5A0710161AA
:103D6000A031C1604FF4BF614161FCF795FE0620B0
:103D700084F82C00022084F82600012084F8270013
:103D8000002584F8285084F8295084F82A5084F8B3
:103D90002B5040F2DC50A08494F82D0040F00A0033
:103DA00084F82D00114800F0B3FC0F483821B030E2
:103DB000FCF771FA0C482121B03001604FF440014A
:103DC000C0E904510A493830FDF7F7FD0648E830EC
:103DD000FDF78DFD2046FEF723FE7CBD02010000AD
:103DE0000000000000800240BC3F0020D0BF00085F
:103DF00044000020F0B58DB00E4600252F4630213E
:103E00006846FCF748FA30216846FCF744FA344625
:103E10006846002216E0042D03D36FF00B000DB0AE
:103E2000F0BD05EB4501636840F8213000EB8101EE
:103E300063894B600DB141F8041C236803B98A60A3
:103E400024686D1C002CE6D1054932894E63C1E916
:103E500001201422A1F1B000FDF75FF83846DEE73B
:103E60006C40002010B504464068804701F0CEFF4A
:103E7000094A216852688B181A1AB2F1004F03D30D
:103E800008442246054902E0044922461846BDE896
:103E9000104002F007B8000094000020653E0008C2
:103EA00000BA704740BA704710B500F04BF900F007
:103EB0001FFC00F07BFE06F075F902F0F9FEBDE88C
:103EC000104002F053B8000018B50022ADF80020F1
:103ED00010F001030CD000290ADD10F8014B8DF819
:103EE0000140491E04E000BF30F8024B891E224405
:103EF0000129F9DC002902DD00788DF80000BDF809
:103F000000001044010C11FA80F0010C11FA80F04D
:103F100023B1C1B2C0F3072040EA012080B218BD2E
:103F200086B0FDF793F9FDF7F5FDFDF7A1FDFFF76D
:103F3000BBFF124803906FF07F400490104805903B
:103F4000104A114900208DE8070005AB04AA03A917
:103F50000E4800F09BFC0D4800F0C4FE0B48FEF735
:103F60007DFD0B49094800F01DFF0848FEF71EFEC5
:103F700001F02AFF0548FCF769FDF6E7AC1003FAEB
:103F8000AC1003FE7D290008252B0008483E0020C8
:103F90005D2A00082DE9F04100284DD0810704D0AA
:103FA00026A340F2732235A132E03D4DA0F1080472
:103FB00029688C4203D36A680C30904204D91FA34D
:103FC00040F27F2237A123E02079002825D0601A13
:103FD00086B2208801F0F2FE0746608801F0EEFE0E
:103FE00021884FF42053002299420DD861889942CC
:103FF0000AD8B14202D00088B04205D16868874231
:1040000010D07888B0420DD00CA340F295222CA19C
:10401000BDE8F04137A0FDF7EFBD08A34FF42372D0
:104020003EA1F5E72271A868844200D2AC60204628
:10403000BDE8F04101F0EABDBDE8F0812E2E2F2E43
:104040002E2F2E2E2F2E2E2F2E2E2F2E2E2F4D6931
:1040500064646C6577617265732F54686972645F1C
:1040600050617274792F4C7749502F7372632F63AC
:104070006F72652F6D656D2E630000006D656D5F5D
:10408000667265653A2073616E697479206368654C
:10409000636B20616C69676E6D656E740000000073
:1040A000680000206D656D5F667265653A20696C19
:1040B0006C6567616C206D656D6F72790000000042
:1040C0006D656D5F667265653A20696C6C656761E8
:1040D0006C206D656D6F72793A206E6F6E2D6C6914
:1040E0006E6B65643A20646F75626C6520667265FC
:1040F00065000000417373657274696F6E2022253C
:104100007322206661696C6564206174206C696E3D
:104110006520256420696E2025730A006D656D5F3A
:10412000667265653A20696C6C6567616C206D65C7
:104130006D6F72793A20646F75626C652066726586
:104140006500000070B50B480B4C20F003014FF4E4
:10415000205521600D80002048800871284601F01C
:104160002DFE012160600171058045802068A060FE
:1041700070BD00000A7E0020680000202DE9F04795
:1041800000286FD0C41C4FF6FC710C404FF420592E
:104190000C2C01D20C2401E04C457CD884427AD30B
:1041A0004148C4F52057824601890288891A8EB297
:1041B00076E0304601F002FE0546007900286CD119
:1041C0002888801B0838A04267D3288804F114018E
:1041D000801B08384FF0010888421DD33019083081
:1041E00087B24F4506D131A340F287323FA144A0A8
:1041F000FDF702FD384601F0E1FD0021017129883B
:10420000018046802F8085F804800088484505D0CD
:1042100001F0D4FD478001E085F80480DAF8080059
:104220005646854203D014E0008801F0C7FD0179AD
:1042300011B171688842F7D1B0607168884208D0C6
:10424000007930B119A340F2B53237A12CA0FDF7A7
:10425000D3FC281971680830884208D913A340F2AA
:10426000B93200E015E037A125A0FDF7C5FCA8078D
:104270000DD00EA340F2BB323EA121A0FDF7BCFC45
:104280000AA340F2BD3247A11DA0FDF7B5FC05F120
:104290000800BDE8F08705E0FFE7DAF80000865B7C
:1042A000B74286D80020F4E7680000202E2E2F2E7B
:1042B0002E2F2E2E2F2E2E2F2E2E2F2E2E2F4D69BF
:1042C00064646C6577617265732F54686972645FAA
:1042D00050617274792F4C7749502F7372632F633A
:1042E0006F72652F6D656D2E63000000696E7661DB
:1042F0006C6964206E657874207074720000000030
:10430000417373657274696F6E2022257322206673
:1043100061696C6564206174206C696E6520256438
:1043200020696E2025730A006D656D5F6D616C6C90
:104330006F633A20216C667265652D3E7573656406
:10434000000000006D656D5F6D616C6C6F633A20FD
:10435000616C6C6F6361746564206D656D6F7279FB
:10436000206E6F742061626F76652072616D5F658B
:104370006E642E006D656D5F6D616C6C6F633A20CD
:10438000616C6C6F6361746564206D656D6F7279CB
:104390002070726F7065726C7920616C69676E65F0
:1043A000642E00006D656D5F6D616C6C6F633A200B
:1043B00073616E69747920636865636B20616C69F1
:1043C000676E6D656E74000002490988401A80B2FC
:1043D00070470000680000202DE9F05F0646CC1C05
:1043E0004FF6FC7004404FF4205A0C2C01D20C24E0
:1043F00001E054452AD88C4228D33E4F3868864283
:1044000002D37868864206D33BA340F2D1224AA168
:104410004FA0FDF7F1FB3868864249D379688E4298
:1044200046D2A6F10805BB46281A87B22888C01BC9
:1044300008381FFA80F94C4506D92FA34FF439727A
:104440004DA143A0FDF7D8FB4C4503D94FF0000028
:10445000BDE8F09F2CD0288801F0B0FC80460079A0
:10446000002827D004F11400484521D83819083015
:1044700084B22888504506D11FA340F2163246A1C7
:1044800033A0FDF7B9FB204601F098FCDBF80820CB
:10449000904201D2CBF808000021017129880180E7
:1044A00047802C800088504502D001F087FC448072
:1044B0003046CDE72888504506D10FA340F2F522BB
:1044C00035A123A0FDF798FB38190830DBF8081058
:1044D000B8F8009084B2414504D1204601F06EFC4A
:1044E000CBF80800204601F069FC00210171A0F81A
:1044F0000090D5E7680000202E2E2F2E2E2F2E2E76
:104500002F2E2E2F2E2E2F2E2E2F4D6964646C658C
:1045100077617265732F54686972645F5061727459
:10452000792F4C7749502F7372632F636F72652F09
:104530006D656D2E630000006D656D5F7472696D51
:104540003A206C6567616C206D656D6F7279000053
:10455000417373657274696F6E2022257322206621
:1045600061696C6564206174206C696E65202564E6
:1045700020696E2025730A006D656D5F7472696D28
:104580002063616E206F6E6C7920736872696E6B48
:10459000206D656D6F727900696E76616C6964205B
:1045A0006E6578742070747200000000092806D3CC
:1045B00007A34FF4D57216A11CA0FDF71DBB00295F
:1045C00004D0244A52F82000FDF722BC70470000B6
:1045D0002E2E2F2E2E2F2E2E2F2E2E2F2E2E2F2EF6
:1045E0002E2F4D6964646C6577617265732F546812
:1045F0006972645F50617274792F4C7749502F73E0
:1046000072632F636F72652F6D656D702E6300008E
:104610006D656D705F667265653A207479706520AE
:104620003C204D454D505F4D41580000417373652E
:104630007274696F6E2022257322206661696C6531
:1046400064206174206C696E6520256420696E2089
:1046500025730A00C0C0000818B1002908D0FDF772
:10466000D7BB04A340F2951212A117A0FDF7C4BA5C
:10467000704700002E2E2F2E2E2F2E2E2F2E2E2F57
:104680002E2E2F2E2E2F4D6964646C657761726516
:10469000732F54686972645F50617274792F4C771C
:1046A00049502F7372632F636F72652F6D656D7044
:1046B0002E630000696E76616C696420706F6F6CA8
:1046C0002064657363000000417373657274696FE1
:1046D0006E2022257322206661696C6564206174F6
:1046E000206C696E6520256420696E2025730A00A0
:1046F00030B5064D002400BF55F8240000F008F83E
:10470000641CA4B2092CF7D330BD0000C0C000085F
:104710008268002111604168C91C21F00301002258
:1047200007E08368521C1B680B608368196003886C
:10473000194443889342F4DC7047000010B50928FF
:1047400008D308A340F2571216A11EA0FDF754FA91
:10475000002010BD254951F82000BDE81040FDF7AC
:10476000ADBB00002E2E2F2E2E2F2E2E2F2E2E2FB5
:104770002E2E2F2E2E2F4D6964646C657761726525
:10478000732F54686972645F50617274792F4C772B
:1047900049502F7372632F636F72652F6D656D7053
:1047A0002E6300006D656D705F6D616C6C6F633AB8
:1047B0002074797065203C204D454D505F4D415827
:1047C00000000000417373657274696F6E202225CA
:1047D0007322206661696C6564206174206C696E67
:1047E0006520256420696E2025730A00C0C000087A
:1047F00010B518B1BDE81040FDF760BB04A34FF43D
:104800009E7213A117A0FDF7F7F9002010BD00005C
:104810002E2E2F2E2E2F2E2E2F2E2E2F2E2E2F2EB3
:104820002E2F4D6964646C6577617265732F5468CF
:104830006972645F50617274792F4C7749502F739D
:1048400072632F636F72652F6D656D702E6300004C
:10485000696E76616C696420706F6F6C206465733B
:1048600063000000417373657274696F6E202225C6
:104870007322206661696C6564206174206C696EC6
:104880006520256420696E2025730A002DE9F04714
:104890000400DDE90970089D03D03FB100290DD067
:1048A0000DE035A340F2271243A103E032A34FF4F9
:1048B000947248A150A0FDF79FF91DE0584902B934
:1048C000574A03B9564B00266660A660DFF854C10C
:1048D000C4F814C0E660A68484F82D60C4E90765B6
:1048E000514D95F800C084F830C02061204600F09A
:1048F000C9F92046B84710B10020BDE8F087B2469C
:1049000040F28B1840F28D1994F83000FF2801D145
:1049100084F830A000276E681EE0A64205D116A3D9
:10492000424642A134A0FDF767F97F1CFF2F05DD49
:1049300011A34A4642A130A0FDF75EF996F8300077
:1049400094F83010884206D1C8B2401C84F8300078
:10495000002ED9D102E03668002EDED194F8300066
:10496000FE2806D0401C28706868206020466C60D5
:10497000C3E785F800A0F7E72E2E2F2E2E2F2E2E20
:104980002F2E2E2F2E2E2F2E2E2F4D6964646C6508
:1049900077617265732F54686972645F50617274D5
:1049A000792F4C7749502F7372632F636F72652F85
:1049B0006E657469662E63006E657469665F616416
:1049C000643A20696E76616C6964206E657469660C
:1049D000000000006E657469665F6164643A204E91
:1049E0006F20696E69742066756E6374696F6E20DE
:1049F000676976656E000000417373657274696F54
:104A00006E2022257322206661696C6564206174C2
:104A1000206C696E6520256420696E2025730A006C
:104A200014A500087D4C00085C0000206E657469C8
:104A30006620616C726561647920616464656400FC
:104A4000746F6F206D616E79206E65746966732C6A
:104A5000206D61782E20737570706F72746564209C
:104A60006E756D6265722069732032353500000005
:104A700070B50C46054602F055FE21462846BDE8B5
:104A8000704005F025BD0A68C3689A4204D001B998
:104A90000022C2600120704700207047F8B515461B
:104AA0000C00064606D113A340F2CB1221A125A08B
:104AB000FDF7A2F8002D06D10EA34FF4E6721DA15A
:104AC00020A0FDF799F821687068814210D000910C
:104AD000286069462846FFF7CBFF3CB1206870602C
:104AE0000121304600F064F80120F8BD0020F6E70F
:104AF0000020F8BD2E2E2F2E2E2F2E2E2F2E2E2FB5
:104B00002E2E2F2E2E2F4D6964646C657761726591
:104B1000732F54686972645F50617274792F4C7797
:104B200049502F7372632F636F72652F6E657469BE
:104B3000662E6300696E76616C696420706F696EC1
:104B400074657200417373657274696F6E202225FB
:104B50007322206661696C6564206174206C696EE3
:104B60006520256420696E2025730A000A68836821
:104B70009A4204D001B900228260012070470020CF
:104B80007047000001000CD00748406807E000BFF4
:104B900090F83020521CD2B28A4203D0006800281C
:104BA000F6D10020704700005C0000207047000034
:104BB00070B50D46040006D10DA340F26D321CA164
:104BC00024A0FDF719F894F82D0041070ED5C10770
:104BD0000CD0E9070AD06168002907D0000705D585
:104BE000211D2046BDE87040FDF70EBE70BD0000DF
:104BF0002E2E2F2E2E2F2E2E2F2E2E2F2E2E2F2ED0
:104C00002E2F4D6964646C6577617265732F5468EB
:104C10006972645F50617274792F4C7749502F73B9
:104C200072632F636F72652F6E657469662E630001
:104C30006E657469665F69737375655F7265706FC1
:104C40007274733A20696E76616C6964206E657463
:104C500069660000417373657274696F6E20222566
:104C60007322206661696C6564206174206C696ED2
:104C70006520256420696E2025730A006FF00B0003
:104C8000704700002DE9F84F4FF000091D46164609
:104C90000C008246C84600D1114C06B9104E05B929
:104CA0000F4DACB1206898B100274A4631465046B6
:104CB000FFF75CFF424629465046FFF7E4FE002F0F
:104CC00004D16A4621465046FFF7E8FEBDE8F88F5A
:104CD00001276A4621465046FFF7E0FEE5E700005F
:104CE00014A5000801498860704700005C0000209E
:104CF00058B190F82D10CA070ED001F0FE0180F8CF
:104D00002D10090708D5FDF733B904A340F29B32F3
:104D100012A11AA0FCF770BF704700002E2E2F2E94
:104D20002E2F2E2E2F2E2E2F2E2E2F2E2E2F4D6944
:104D300064646C6577617265732F54686972645F2F
:104D400050617274792F4C7749502F7372632F63BF
:104D50006F72652F6E657469662E63006E65746987
:104D6000665F7365745F646F776E3A20696E766113
:104D70006C6964206E657469660000004173736538
:104D80007274696F6E2022257322206661696C65DA
:104D900064206174206C696E6520256420696E2032
:104DA00025730A00002800D0C161704758B190F8FF
:104DB0002D104A070ED501F0FB0180F82D10C169B6
:104DC000002907D0084704A340F2064212A11BA005
:104DD000FCF712BF704700002E2E2F2E2E2F2E2EE6
:104DE0002F2E2E2F2E2E2F2E2E2F4D6964646C65A4
:104DF00077617265732F54686972645F5061727471
:104E0000792F4C7749502F7372632F636F72652F20
:104E10006E657469662E63006E657469665F73659E
:104E2000745F6C696E6B5F646F776E3A20696E7643
:104E3000616C6964206E6574696600004173736516
:104E40007274696F6E2022257322206661696C6519
:104E500064206174206C696E6520256420696E2071
:104E600025730A00002200F001B8000070B5A8B157
:104E7000B1F5803F26D2002918D004898BB214FAEC
:104E800081F5ADB29D421DD3057B2D0610D542683C
:104E9000511A00F11002914214D30CE00AA340F21F
:104EA000DF1219A11BA0FCF7A7FE0BE0002070BDCC
:104EB00042B14268511A4160418919444181E11867
:104EC0000181F3E7012070BD2E2E2F2E2E2F2E2EC6
:104ED0002F2E2E2F2E2E2F2E2E2F4D6964646C65B3
:104EE00077617265732F54686972645F5061727480
:104EF000792F4C7749502F7372632F636F72652F30
:104F0000706275662E6300007020213D204E554C66
:104F10004C000000417373657274696F6E20222526
:104F20007322206661696C6564206174206C696E0F
:104F30006520256420696E2025730A002DE9FC5F39
:104F4000054690460F461046012A0FD041280DD045
:104F5000B0F5C17F10D0B2F5207F56D042A340F209
:104F6000271251A157A0FCF747FE7BE00246002024
:104F700000F004F9044672E00024A1460820FFF77F
:104F8000DDFB060039D005F1030B2BF00300A0F286
:104F9000F450404280B2B84200D9384682460020E0
:104FA000CDE900807019133020F0030153463A46D2
:104FB000304600F0BDFC3079800706D02AA34FF4BC
:104FC00080724AA13FA0FCF717FE40F27D11B1EBC1
:104FD0009B0F06D124A34FF4817250A139A0FCF796
:104FE0000BFE84B1C9F80060A7EB0A000704B146C4
:104FF0003F0C4FF00005C1D131E0002C32D02046EB
:1050000000F0C8FB2EE03446EEE7E81C20F0030277
:10501000F81C20F00301501880B200F1100292B287
:1050200081421FD891421DD81046FFF7A7F804000F
:1050300018D00020CDE900806019133020F0030162
:105040003B461A46204600F073FC2079800706D0C4
:1050500005A34FF491723EA11AA0FCF7CDFD2046A6
:10506000BDE8FC9F0020FBE72E2E2F2E2E2F2E2E8C
:105070002F2E2E2F2E2E2F2E2E2F4D6964646C6511
:1050800077617265732F54686972645F50617274DE
:10509000792F4C7749502F7372632F636F72652F8E
:1050A000706275662E630000706275665F616C6C7D
:1050B0006F633A206572726F6E656F7573207479D5
:1050C00070650000417373657274696F6E202225EC
:1050D0007322206661696C6564206174206C696E5E
:1050E0006520256420696E2025730A00706275664C
:1050F0005F616C6C6F633A207062756620712D3E43
:105100007061796C6F61642070726F7065726C7918
:1051100020616C69676E656400000000504255466E
:105120005F504F4F4C5F42554653495A45206D756D
:1051300073742062652062696767657220746861B4
:105140006E204D454D5F414C49474E4D454E5400F4
:10515000706275665F616C6C6F633A207062756631
:105160002D3E7061796C6F61642070726F70657232
:105170006C7920616C69676E656400002DE9FC4103
:1051800014460E460746412A08D0012C06D00CA32F
:105190004FF4A5721AA11FA0FCF72EFD0720FFF700
:1051A000CDFA05004FF0000008D0CDE900403346AD
:1051B0001A463946284600F0BBFB2846BDE8FC816C
:1051C0002E2E2F2E2E2F2E2E2F2E2E2F2E2E2F2EFA
:1051D0002E2F4D6964646C6577617265732F546816
:1051E0006972645F50617274792F4C7749502F73E4
:1051F00072632F636F72652F706275662E63000095
:10520000696E76616C696420706275665F7479702E
:1052100065000000417373657274696F6E2022250A
:105220007322206661696C6564206174206C696E0C
:105230006520256420696E2025730A007CB51C4614
:10524000DDE90635C01C20F003004618AE4201D946
:1052500000207CBD0BB1184400E000200223CDE902
:1052600000230B4601461A46204600F061FB20460B
:105270007CBD000070B50D4608B1002D08D1BDE819
:10528000704014A340F2593222A130A0FCF7B4BC04
:105290000446006820B121892A8911442181F7E759
:1052A0002089618988420FD00AA340F2623231A17D
:1052B00026A0FCF7A1FC206830B106A340F26332BF
:1052C00038A122A0FCF798FC208929890844208174
:1052D000256070BD2E2E2F2E2E2F2E2E2F2E2E2FF0
:1052E0002E2E2F2E2E2F4D6964646C6577617265AA
:1052F000732F54686972645F50617274792F4C77B0
:1053000049502F7372632F636F72652F70627566D9
:105310002E630000286820213D204E554C4C29204A
:10532000262620287420213D204E554C4C2920282B
:1053300070726F6772616D6D65722076696F6C61F6
:105340007465732041504929000000004173736562
:105350007274696F6E2022257322206661696C6504
:1053600064206174206C696E6520256420696E205C
:1053700025730A00702D3E746F745F6C656E203D5E
:105380003D20702D3E6C656E20286F66206C617329
:1053900074207062756620696E20636861696E2989
:1053A00000000000702D3E6E657874203D3D204E5B
:1053B000554C4C00002102E0491C006889B20028CD
:1053C000FAD108467047000070B5154613890A46A1
:1053D0001946FFF7B3FD04000DD0294600F04CF844
:1053E000002806D005A340F2245214A118A0FCF70F
:1053F00003FC204670BD002070BD00002E2E2F2E15
:105400002E2F2E2E2F2E2E2F2E2E2F2E2E2F4D695D
:1054100064646C6577617265732F54686972645F48
:1054200050617274792F4C7749502F7372632F63D8
:105430006F72652F706275662E630000706275660C
:105440005F636F7079206661696C656400000000BD
:10545000417373657274696F6E2022257322206612
:1054600061696C6564206174206C696E65202564D7
:1054700020696E2025730A002DE9F0474FF00007E0
:105480000C4605003E466FF00F0904D01CB1288978
:105490002189884204D233A340F2C93241A145E0B8
:1054A0006FF0050A6889C11B6089801B814201D3A6
:1054B000804600E088466068424681196868384442
:1054C000FAF7C2FE688947444644B84206D225A38B
:1054D00040F2D9323FA145A0FCF78EFB6089B04273
:1054E00006D220A340F2DA324AA140A0FCF784FBA6
:1054F0006089B04201D8246800266889B84202D188
:105500002D68002765B1002C16D06089218988425A
:1055100012D1206800280FD012A340F2E93216E021
:10552000002C1CD00FA34FF4797241A12FA0FCF7DF
:1055300063FB4846BDE8F087002D0ED068892989B5
:1055400088420AD1286840B106A340F2EE323CA15D
:1055500026A0FCF751FB5046ECE7002CA2D100201E
:10556000E8E700002E2E2F2E2E2F2E2E2F2E2E2F40
:105570002E2E2F2E2E2F4D6964646C657761726517
:10558000732F54686972645F50617274792F4C771D
:1055900049502F7372632F636F72652F7062756647
:1055A0002E630000706275665F636F70793A2074D5
:1055B0006172676574206E6F742062696720656E22
:1055C0006F75676820746F20686F6C6420736F75E7
:1055D000726365006F66667365745F746F203C3D2F
:1055E00020705F746F2D3E6C656E000041737365B3
:1055F0007274696F6E2022257322206661696C6562
:1056000064206174206C696E6520256420696E20B9
:1056100025730A006F66667365745F66726F6D202E
:105620003C3D20705F66726F6D2D3E6C656E0000B4
:10563000705F746F20213D204E554C4C00000000DF
:10564000706275665F636F7079282920646F657377
:10565000206E6F7420616C6C6F77207061636B6576
:105660007420717565756573210000002DE9F047A0
:10567000002716468946B84620B1B9F1000F06D07A
:1056800004462CE018A340F20A4227A103E016A327
:1056900040F20B422CA135A0FCF7AEFA0020BDE889
:1056A000F0872BB16089984202D8181A83B215E0AE
:1056B0006089C01A85B2B54200D9354660682A466D
:1056C000C11809EB0700FAF7BFFD08EB05001FFA48
:1056D00080F8781987B2701B86B2002324680EB157
:1056E000002CDED14046DAE72E2E2F2E2E2F2E2E26
:1056F0002F2E2E2F2E2E2F2E2E2F4D6964646C658B
:1057000077617265732F54686972645F5061727457
:10571000792F4C7749502F7372632F636F72652F07
:10572000706275662E630000706275665F636F70ED
:10573000795F7061727469616C3A20696E76616C30
:105740006964206275660000706275665F636F70E1
:10575000795F7061727469616C3A20696E76616C10
:1057600069642064617461707472000041737365D0
:105770007274696F6E2022257322206661696C65E0
:1057800064206174206C696E6520256420696E2038
:1057900025730A0070B5040004D00025A07B002802
:1057A00009D00FE024A34FF4377233A135A0FCF7E2
:1057B00023FA002070BD20A340F2F1223BA131A0CA
:1057C000FCF71AFAA07B401E10F0FF00A07325D151
:1057D000207B617B266800F00F0089070DD52069CA
:1057E000002806D114A340F2FF2236A125A0FCF721
:1057F00003FA2169204688470CE0022810D00128CE
:1058000011D0002814D00CA340F20F3236A11DA0F5
:10581000FCF7F2F96D1CEDB23400BFD1284670BD23
:105820002146082001E021460720FEF7BFFEF1E7F0
:105830002046FEF7AFFBEDE72E2E2F2E2E2F2E2E1D
:105840002F2E2E2F2E2E2F2E2E2F4D6964646C6539
:1058500077617265732F54686972645F5061727406
:10586000792F4C7749502F7372632F636F72652FB6
:10587000706275662E6300007020213D204E554CED
:105880004C000000417373657274696F6E202225AD
:105890007322206661696C6564206174206C696E96
:1058A0006520256420696E2025730A007062756684
:1058B0005F667265653A20702D3E726566203E20F7
:1058C0003000000070632D3E637573746F6D5F660A
:1058D0007265655F66756E6374696F6E20213D2029
:1058E0004E554C4C00000000696E76616C69642076
:1058F00070627566207479706500000010B501460D
:105900000448FEF7A9FE04480178012901D10021CD
:10591000017010BDD0BF0008400000200122AFF38D
:105920000080002902DA494200F000B9FFF79EBA70
:1059300070B50024DDE90456C0E9004102814381CD
:105940000573467301218173C47370BD2DE9F04165
:105950000D46040006D121A34FF4CC722FA135A02F
:10596000FCF74AF92089A84236D9401B86B240F29A
:10597000AF170DE0281A85B22089801B208124688A
:10598000002C05D115A33A4634A12AA0FCF734F91E
:105990006089A842EED3207B000715D16089A84218
:1059A00012D0607B80070FD4A088001B284481B2EE
:1059B0002046FEF711FD040006D108A340F2BD12F7
:1059C0002CA11CA0FCF718F965812581206808B17D
:1059D000FFF7E0FE00202060BDE8F0812E2E2F2E84
:1059E0002E2F2E2E2F2E2E2F2E2E2F2E2E2F4D6978
:1059F00064646C6577617265732F54686972645F63
:105A000050617274792F4C7749502F7372632F63F2
:105A10006F72652F706275662E6300007062756626
:105A20005F7265616C6C6F633A207020213D204E7F
:105A3000554C4C00417373657274696F6E2022255A
:105A40007322206661696C6564206174206C696EE4
:105A50006520256420696E2025730A0070627566D2
:105A60005F7265616C6C6F633A207120213D204E3E
:105A7000554C4C006D656D5F7472696D2072657474
:105A800075726E65642071203D3D204E554C4C0072
:105A900000280CD0817B491C11F0FF01817306D1D5
:105AA00003A340F2423212A116A0FCF7A5B870473A
:105AB0002E2E2F2E2E2F2E2E2F2E2E2F2E2E2F2E01
:105AC0002E2F4D6964646C6577617265732F54681D
:105AD0006972645F50617274792F4C7749502F73EB
